:020000040800F2
:10000000080B0020C10100085B300008892B0008A4
:100010005930000821090008DD3700080000000001
:10002000000000000000000000000000B5320008E1
:100030002309000800000000B3320008B7320008AE
:10004000DB010008DB010008DB010008DB01000820
:10005000DB010008DB01000825090008DB010008BE
:10006000DB010008DB010008DB010008DB01000800
:10007000DB010008DB010008DB010008DB010008F0
:10008000DB010008DB010008DB010008DB010008E0
:10009000DB010008DB010008DB010008DB010008D0
:1000A000DB010008DB010008DB010008DB010008C0
:1000B0006D330008DB010008DB010008DB010008EC
:1000C000DB010008DB010008DB010008DB010008A0
:1000D000DB01000875370008D1370008DB01000894
:1000E000DB010008DB010008DB010008DB01000880
:1000F000DB010008DB010008DB010008DB01000870
:10010000DB010008DB010008DB010008DB0100085F
:10011000DB010008DB01000879330008DB0100087F
:10012000DB010008DB010008DB010008DB0100083F
:10013000DB010008DB010008DB010008DB0100082F
:10014000DB010008DB010008DB010008DB0100081F
:10015000DB010008DB010008DB010008DB0100080F
:10016000DB010008DB010008DB010008DB010008FF
:10017000DB010008DB010008DB01000800000000D3
:10018000DB010008DB010008DB010008DB010008DF
:10019000DB010008DB010008DB010008DB010008CF
:1001A000DB010008DB010008DB010008DFF80CD0F0
:1001B00000F078FA00480047DD460008080B0020F0
:1001C0000648804706480047FEE7FEE7FEE7FEE7F1
:1001D000FEE7FEE7FEE7FEE7FEE7FEE75D33000829
:1001E000AD0100082DE9F05F0546002092469B46D0
:1001F00088460646814640241BE02846414647463D
:10020000224600F087F853465A46C01A914110D34F
:1002100011461846224600F06EF82D1A67EB0108C9
:100220004F4622460120002100F065F817EB000937
:100230004E41201EA4F10104DFDC484631462A4627
:100240004346BDE8F09FD2B201E000F8012B491E01
:10025000FBD270470022F6E710B513460A46044663
:100260001946FFF7F0FF204610BD30B505462A4677
:100270000B4612F8010B13F8014B08B1A042F8D05D
:100280001CB1002802D06D1CF1E7284630BD421C8D
:1002900010F8011B0029FBD1801A704710B500220D
:1002A00000E0521C835C8C5CA34201D1002BF8D18E
:1002B000D8B2E1B2401A10BD034611F8012B00F884
:1002C000012B002AF9D11846704730B50B4601467C
:1002D00000202022012409E021FA02F59D4205D3E5
:1002E00003FA02F5491B04FA02F52844151EA2F18F
:1002F0000102F1DC30BD202A04DB203A00FA02F1D1
:10030000002070479140C2F1200320FA03F3194303
:1003100090407047202A04DB203A21FA02F00021A5
:10032000704721FA02F3D040C2F120029140084305
:10033000194670472DE9FE4F804681EA0300C00F41
:100340000C46009021F0004123F00045B8EB02007C
:10035000A94105D24046214690461C460B4602461E
:1003600023F00040104347D0270DC7F30A00C3F322
:100370000A510290401A019040286BDAC3F313002F
:1003800040F4801B0098924620B10023D2EB030A70
:1003900063EB0B0B01985946C0F140025046FFF742
:1003A000AAFF06460D4650465946019A00F08CF9C0
:1003B00010EB08006141002487EA115284EAE773D8
:1003C0001A4340D0009A62B3019A012A4FEA0752B9
:1003D00015DC001B61EB02014FF0004202EA0752FC
:1003E000CDE90042001C41F5801132462B4600F059
:1003F0008CF903B0BDE8F08F40462146F9E7001BB9
:1004000061EB0201001C41F5801300185B412018CC
:10041000A2F5001747EB030140EAD570B6196D410C
:1004200011E06D084FEA360645EAC0754FEA0752FB
:10043000001B61EB0201001C41F5801149084FEAE5
:1004400030000019514132462B4603B0BDE8F04F51
:1004500000F04CB90098012240000023D0EB0202CA
:1004600063EBE073009821464FEAE074B8EB0000BC
:1004700061EB0401E9E783F000435BE781F00041B1
:1004800058E72DE9FE4F81EA030404F0004421F00F
:10049000004100944FF0000B23F0004350EA0104A8
:1004A0005ED052EA03045BD0C3F30A54C1F30A5589
:1004B0002C44A4F2F3340194A0FB0254C1F31301C1
:1004C00041F48011C3F3130343F4801301FB02448E
:1004D00000FB034E840A970A44EA815447EA835793
:1004E000A4FB076802958D0A05FB07854FEA932C4C
:1004F00004FB0C542705029D4FEA065847EA1637BD
:10050000B5EB08056EEB070C870E920E47EA8117D4
:1005100042EA8312A7FB0201B6EB0B0164EB000475
:100520002B0D43EA0C335E1844EB1C50DA4651465F
:10053000E7FB0201C5F313044FEA0B3343EA1453FC
:100540004FEA0432019C43EA0603A4F10C0402942E
:10055000009CCDE900B400F0D8F803B0BDE8F08FFE
:1005600000200146F9E72DE9F04D81EA030404F08B
:10057000004B21F0004514464FF0000A23F00041E3
:1005800050EA050220D054EA01021DD0C5F30A57F3
:100590000246C5F31303C1F31300C1F30A5640F436
:1005A000801543F48013A7EB0608101BD64608F20B
:1005B000FD3873EB050002D308F1010801E0921841
:1005C0005B41B8F1000F03DA00200146BDE8F08D71
:1005D00000204FF48011064684460EE0171B73EB93
:1005E000050705D3121B63EB050306434CEA010C18
:1005F00049084FEA300092185B4150EA0107EDD1FB
:1006000052EA030012D082EA040083EA050108439B
:1006100005D0101BAB4106D20122002306E00022C8
:100620004FF0004302E06FF0010253101AEB060096
:100630004CEB085110EB0A0041EB0B01BDE8F04D0B
:1006400000F054B8C1F30A52C1F3130140F2FF3372
:1006500041F480119A4202DA00200146704740F2CC
:1006600033439A42A2F2334202DC5242FFF752BEB7
:10067000FFF741BE30B5041E71F1000404DB4FF0FA
:100680000044404264EB0101141E73F1000405DBD9
:100690001C464FF00043524263EB0403994208BFEB
:1006A000904230BD064C074D06E0E06840F0010383
:1006B00094E8070098471034AC42F6D3FFF77AFD70
:1006C000545F0008745F0008202A06DBCB17203A2D
:1006D00041FA02F043EAE07306E041FA02F3D04047
:1006E000C2F12002914008431946704710B5141E0C
:1006F00073F1000408DA401C41F1000192185B41DB
:100700001A4301D120F0010010BD2DE9F04D9246B1
:100710009B4611B1B1FA81F202E0B0FA80F22032C8
:100720009046FFF7E8FD04460F4640EA0A0041EA1A
:100730000B0153465A46084313D0114653EA0100B1
:1007400019D0C8F140025046FFF7E4FD05460E46B9
:10075000504659464246FFF7CEFD084305D00120DA
:1007600004E020463946BDE8F08D0020054346EA06
:10077000E0762C4337430A986305E40AA0EB0800AF
:100780000022FD0A44EA47540A3002D500200146FF
:10079000E9E7010510196941DDE9084500196941DA
:1007A000BDE8F04DA2E7000010B504464B48416893
:1007B00021F4403141604168626811434160206822
:1007C000416821F48071416020684168226941EAF2
:1007D000022141602068416821F040714160206839
:1007E0004168A268114341602068816821F400617A
:1007F000816020688168E26811438160A06A6FF0BF
:100800007061C8422068816821F070618160206851
:1008100081680CD0A26A114381602068816821F050
:100820004051816020688168E26A114301E021F053
:10083000405181602068816821F002018160206858
:100840008168227E41EA4201816094F820000028FC
:100850003FD0606A401E072804D940F2A67120A04C
:1008600003F0F4FD2068416841F4006141602068B4
:10087000416821F46041416020684168264B626A0A
:1008800003EB4232114341602068C16A21F47001D8
:10089000C1622068C16AA28B204B03EB0252114354
:1008A000C1622068816821F40071816020688168DC
:1008B00094F8302041EA422181602068816821F467
:1008C0008061816020688168626941EA822181607B
:1008D00010BD2068416821F40061D4E70023014085
:1008E0002E2E2F447269766572732F53544D333216
:1008F000463478785F48414C5F4472697665722F60
:100900005372632F73746D3332663478785F686125
:100910006C5F6164632E630000E0FFFF0000F0FF86
:10092000FEE77047012000F0ADBA72B6FEE70000A6
:10093000F8B50027054600970868664E0C46122851
:1009400006D9B04204D040F2896163A003F07EFD75
:100950006068401E0F2804D940F28A615EA003F04F
:1009600075FDA06890B1012810D002280ED0032890
:100970000CD004280AD0052808D0062806D007285D
:1009800004D040F28B6154A003F060FD95F83C0068
:10099000012819D0012085F83C00206807212A6829
:1009A000092813D9D3680A3800EB400081408B43F3
:1009B000D3602178A0680A3901EB41018840296899
:1009C000CA681043C86010E00220F8BD136900EB4C
:1009D000400081408B4313612078A16800EB400008
:1009E0008140286802691143016160681F2107285E
:1009F00013D22A68536B401E00EB800081408B436A
:100A0000536321792088491E80B201EB810188401F
:100A100029684A6B1043486327E02A680D2812D2E0
:100A2000136BC01F00EB800081408B43136321795F
:100A30002088C91F80B201EB8101884029680A6BB8
:100A40001043086311E0D36A0D3800EB8000814049
:100A50008B43D362217920880D3980B201EB81016B
:100A600088402968CA6A1043C8622A492A68284807
:100A70008A420AD12268122A07D1426822F400026F
:100A80004260426842F4800242602A688A421CD175
:100A90002168B14201D0112917D1416821F48001A8
:100AA0004160416841F4000141602068B0420CD1CE
:100AB00019481A490068B0FBF1F000EB80004000D3
:100AC00000E0401E00900028FBD185F83C7000201B
:100AD000F8BD0000120000102E2E2F4472697665BA
:100AE00072732F53544D3332463478785F48414CFB
:100AF0005F4472697665722F5372632F73746D331E
:100B000032663478785F68616C5F6164632E63007D
:100B100000230140002001407800002040420F00E7
:100B20002DE9F04704004FF000057DD072492068A0
:100B300088420AD07149884207D07149884204D05E
:100B400040F243116FA003F081FC606868B1B0F51A
:100B5000803F0AD0B0F5003F07D0B0F5403F04D049
:100B60004FF4A27167A003F071FCA0684FF080778A
:100B70004FF000784FF0407950B1B84208D040456E
:100B800006D0484504D040F245115EA003F05EFC5B
:100B9000206930B1012804D04FF4A37159A003F0AB
:100BA00055FC207E30B1012804D040F2471155A0F9
:100BB00003F04CFC614EA06A80B3B8422ED0404591
:100BC0002CD048452AD0B0F1806F27D0B0F1A06F6B
:100BD00024D0B0F1C06F21D0B0F1E06F1ED0B0F1E1
:100BE000006F1BD0B0F1106F18D0B0F1206F15D08E
:100BF000B0F1306F12D0B0F1406F0FD0B0F1506F44
:100C00000CD0B0F1606F09D0B0F1706F06D0B04277
:100C100004D04FF4A4713BA003F018FCE06848B185
:100C2000B0F5006F06D000E043E040F2491135A076
:100C300003F00CFCE069401E0F2804D94FF4A571A5
:100C400030A003F003FC94F8300030B1012804D048
:100C500040F24B112BA003F0F9FB6069012807D08B
:100C600030B1022804D04FF4A67126A003F0EEFBA9
:100C700094F8200030B1012804D040F24D1121A099
:100C800003F0E4FBA06AB0420FD0E06A68B1B0F1B3
:100C9000805F0AD0B0F1005F07D0B0F1405F04D0B0
:100CA00040F2511117A003F0D1FB206C002618B1BF
:100CB00008E00120BDE8F087204600F041F86664B6
:100CC00084F83C60206CC00610D4206C20F488505E
:100CD00040F0020020642046FFF766FD6664206C49
:100CE00020F0020040F00100206400E0012584F8BB
:100CF0003C602846DEE70000002001400021014062
:100D0000002201402E2E2F447269766572732F5394
:100D1000544D3332463478785F48414C5F447269B1
:100D20007665722F5372632F73746D333266347825
:100D3000785F68616C5F6164632E63000100000F7F
:100D400010B586B0044614216846FFF783FA1149AE
:100D5000206888421CD110480021026842F4807249
:100D60000260006800F4807005900B481438026837
:100D700042F001020260006800F0010005900220CC
:100D800000900320CDE901016946044800F086F88F
:100D900006B010BD0020014044380240000002406F
:100DA0002DE9F0410446876D00F042FA064694F8BA
:100DB00035000025022806D08020606584F8345074
:100DC0000120BDE8F0812068016821F01601016072
:100DD0002068416921F080014161206C08B9A06C54
:100DE00020B12068016821F00801016020680168D5
:100DF00021F0010101600CE000F01AFA801B0528C7
:100E000007D920206065032084F8350084F8345029
:100E1000D7E720680068C007EED194F85C103F2047
:100E20008840B860012084F8350084F834500020F0
:100E3000C7E790F83510022903D0802141650120D1
:100E40007047052180F835100068016821F0010124
:100E5000016000207047000010B5012808D103F0A0
:100E60000DFBBDE81040C82202A103A003F0E8BBBF
:100E700010BD00004F4B000041542B434950434CE0
:100E80004F534500044910B50A68024202D0086079
:100E9000FFF7E2FF10BD0000143C01402DE9F84FC0
:100EA000DFF8ACB20D460446584521D0A94884422B
:100EB0001ED0A94884421BD0A848844218D0A84814
:100EC000844215D0A748844212D0A74884420FD04C
:100ED000A64884420CD0A648844209D0A548844242
:100EE00006D0A548844203D0AC21A4A003F0AEFAFA
:100EF00028680104090C01D0000C03D0AD219FA08B
:100F000003F0A4FA6868F8B101281DD011281BD09D
:100F1000022819D0122817D0B0F5881F14D0B0F5C8
:100F2000041F11D0B0F5441F0ED0B0F5901F0BD0A8
:100F3000B0F5081F08D0B0F5481F05D0032803D02E
:100F4000AE218EA003F082FA00264FF0010A4FF086
:100F5000030900BF0AFA06F02F688046074047459C
:100F60007ED1287900F00300012801D002281DD18C
:100F7000E86848B1012807D0022805D0032803D02B
:100F8000C0217EA003F062FAA068720009FA02F1A3
:100F90008843E96891400143A1606068297920EAAB
:100FA0000800C1F30011B140014361602879C043DA
:100FB000800712D0A86838B1012805D0022803D0D4
:100FC000D1216EA003F042FAE168720009FA02F042
:100FD0008143A86890400843E060287900F003004E
:100FE000022830D1286908B309281FD001281DD054
:100FF00002281BD0032819D0042817D0052815D0A3
:10100000062813D0072811D008280FD00A280DD0A1
:101010000B280BD00C2809D00D2807D00F2805D09D
:101020000E2803D0DE2155A003F010FAF00804EBDF
:101030008002106A7107CB0E0F21994088432969FD
:101040009940014311622068720009FA02F1884355
:10105000297901F00301914001432160686800E0B3
:101060006FE010F4403F6CD05348016841F4804178
:101070000160006826F0030100F4804000904F48B2
:101080000A18D2F80808B1070B0F0F2199408843BE
:101090005C4501D100212DE02E498C4201D1012176
:1010A00028E02D498C4201D1022123E02B498C42BA
:1010B00001D103211EE02A498C4201D1042119E00B
:1010C00028498C4201D1052114E027498C4201D1E5
:1010D00006210FE025498C4201D107210AE024496D
:1010E0008C4201D1082105E022498C4201D109211D
:1010F00000E00A2199400143C2F808183049086805
:101100006A68B843D20300D5384308602C49091DEA
:1011100008686A68B843920300D5384308602849D4
:10112000083108686A68B843D20200D538430860BD
:1011300023490C3108686A68B843920200D53843E5
:101140000860761C102EFFF405AFBDE8F88F000094
:10115000000002400004024000080240000C02406F
:10116000001002400014024000180240001C02401F
:101170000020024000240240002802402E2E2F446E
:101180007269766572732F53544D333246347878D2
:101190005F48414C5F4472697665722F5372632FCA
:1011A00073746D3332663478785F68616C5F677032
:1011B000696F2E6300000000443802400030014097
:1011C000003C014070B515460C00064604D140F2C3
:1011D0009D1108A003F03AF945B1012D04D04FF458
:1011E000CF7104A003F032F9B46170BD2004B06186
:1011F00070BD00002E2E2F447269766572732F53D6
:10120000544D3332463478785F48414C5F447269BC
:101210007665722F5372632F73746D333266347830
:10122000785F68616C5F6770696F2E630000000013
:1012300001488068704700006C0000200248816807
:1012400002781144816070476C0000200B4810B593
:10125000016841F400710160016841F4806101603E
:10126000016841F480710160032000F0C5F800209E
:1012700000F006F800F024F8002010BD003C024009
:1012800070B50D4D04464FF47A712878B1FBF0F03B
:101290000A490968B1FBF0F000F002FD48B9102CD2
:1012A00007D200222146501E00F056F800206C6044
:1012B00070BD012070BD00006C000020780000208F
:1012C0000B4882B0016841F480410160006800F47D
:1012D000804000900648001F016841F08051016085
:1012E000006800F080500090052002B000F084B843
:1012F0004438024010B5040003D5BE2107A003F016
:10130000A5F8002C09DB04F01F01012088406109C9
:10131000890001F1E021C1F8000110BD2E2E2F44FB
:101320007269766572732F53544D33324634787830
:101330005F48414C5F4472697665722F5372632F28
:1013400073746D3332663478785F68616C5F636F95
:10135000727465782E63000070B515460C4606461B
:10136000102A03D3AA2114A003F070F8102C03D381
:10137000AB2111A003F06AF81E480068C0F30223F5
:10138000C3F107022046042A00D90422191D0729A7
:1013900001D2002300E0DB1E012404FA02F1491E01
:1013A000014099409C40641E2C4021433046BDE8DA
:1013B000704002F055BA00002E2E2F4472697665F7
:1013C00072732F53544D3332463478785F48414C12
:1013D0005F4472697665722F5372632F73746D3335
:1013E00032663478785F68616C5F636F72746578B9
:1013F0002E6300000CED00E010B5044607280BD06A
:10140000062C09D0052C07D0042C05D0032C03D0C2
:10141000922108A003F01AF8154904F007020868A1
:101420004FF6FF03184040EA0220124A10430860BA
:1014300010BD00002E2E2F447269766572732F53F3
:10144000544D3332463478785F48414C5F4472697A
:101450007665722F5372632F73746D3332663478EE
:10146000785F68616C5F636F727465782E630000EB
:101470000CED00E00000FA052DE9F843174801687B
:1014800041F0805101600068154F00F08050012646
:1014900000903E64FFF7CCFE05464FF47A78114C7D
:1014A00005E000BFFFF7C4FE401B40450DD8606853
:1014B000C003F7D57E64FFF7BBFE0546464607E04E
:1014C000FFF7B6FE401BB04202D90320BDE8F88307
:1014D00060688003F4D50020F8E70000403802403F
:1014E00000000E42007000402DE9F0470C46050058
:1014F0007ED02868401E0E2804D94FF4177182A0B0
:1015000002F0A4FF14B3012C20D0022C1ED0032C17
:101510001CD0042C1AD0052C18D0062C16D0072C61
:1015200014D0082C12D0092C10D00A2C0ED00B2C61
:101530000CD00C2C0AD00D2C08D00E2C06D00F2C61
:1015400004D040F25D2170A002F080FFDFF8F0814E
:10155000D8F80000E7B200F00F00A04207D288F8E8
:101560000070D8F8000000F00F00A04240D12868B9
:10157000744E810729D5400703D5306840F4E05008
:1015800030602878000703D5306840F46040306050
:10159000A868A0B1802812D0902810D0A0280ED022
:1015A000B0280CD0C0280AD0D02808D0E02806D017
:1015B000F02804D04FF4207153A002F047FF3068A8
:1015C000A96820F0F000084330602878C00743D0B5
:1015D000DFF870916868A9F1080998B1012822D054
:1015E000022824D0032822D040F2872146A000E020
:1015F0003FE002F02BFF6868012814D0022816D0C3
:10160000032814D0D9F800008007002831DA3068A8
:10161000696820F0030008433060FFF709FE814647
:1016200041F2883A11E0D9F800008003EDE7D9F8DB
:1016300000008001E9E700BFFFF7FAFDA0EB090118
:10164000514502D90320BDE8F0873068696800F091
:101650000C00B0EB810FEFD1D8F80010404601F03C
:101660000F01A14207D90770006800F00F00A042E7
:1016700001D00120E7E728784FF4805440074FF469
:10168000A0574FF4C0584FF4E05914D5E86860B142
:10169000A0420AD0B84208D0404506D0484504D000
:1016A00040F2C52118A002F0D1FE3068E96820F4AC
:1016B000E050084330602878000715D5286960B1EC
:1016C000A0420AD0B84208D0404506D0484504D0D0
:1016D0004FF433710CA002F0B9FE3068296920F490
:1016E000604040EAC100306000F054F83168164AAA
:1016F000C1F30311515CC8401449086014480068E4
:10170000FFF7BEFD00209EE72E2E2F4472697665FE
:1017100072732F53544D3332463478785F48414CBE
:101720005F4472697665722F5372632F73746D33E1
:1017300032663478785F68616C5F7263632E630031
:10174000003C0240083802403C5F0008780000205E
:10175000700000200448054900680968044AC1F384
:101760008221515CC8407047780000200838024050
:101770004C5F00080448054900680968044AC1F341
:101780004231515CC8407047780000200838024060
:101790004C5F0008154810B5006810F00C021448A2
:1017A00013D01449042A0FD0082A0ED10F4C241F3D
:1017B0002268236802F03F025B0207D52068C0F36D
:1017C0008810A0FB010106E0084610BD2168C1F3A6
:1017D0008811A1FB00010023FEF704FD2168C1F37D
:1017E0000141491C4900B0FBF1F010BD083802402E
:1017F0000024F40040787D012DE9F84F04007DD0ED
:1018000020680F2803D9E821F7A002F01FFE2078F6
:10181000DFF80C94C007A9F1040555D060684FF4B7
:1018200080364FF4A02738B1B04205D0B84203D07B
:10183000ED21EDA002F00AFEF948001D0168C1F398
:101840008101012908D00068C0F3810002280AD173
:10185000D9F80000400206D52868800334D56068B6
:101860000028CCD030E06068B04203D1286840F452
:1018700080300CE0B842286803D140F48020286012
:10188000F4E720F480302860286820F48020286065
:10189000606860B1FFF7CCFC064604E0FFF7C8FCC7
:1018A000801B64287ED828688003F7D50CE0FFF7FA
:1018B000BFFC064605E000BFFFF7BAFC801B6428AA
:1018C000F0D828688003F7D42078DFF858838007A1
:1018D0004FF0000A56D5E06830B1012804D040F23C
:1018E0001F11C1A002F0B2FD20691F2804D94FF4D6
:1018F0009071BDA002F0AAFDC94800E092E0001D71
:10190000016811F00C0F08D00068C0F381000228B4
:1019100010D1D9F8000040020CD42868800702D505
:10192000E06801287ED12868216920F0F80040EAAB
:10193000C10017E0E068B8B10120C8F80000FFF767
:1019400077FC064605E000BFFFF772FC801B02280B
:10195000A8D828688007F7D5286820F0F801206902
:1019600041EAC00028600DE0C8F800A0FFF760FC65
:10197000064604E0FFF75CFC801B022892D828682A
:101980008007F7D4207800072ED5A54EA64F6069B2
:101990007036D0B1012808D04FF4B07192A002F097
:1019A00055FD00E04BE1606978B101203860FFF738
:1019B0003FFC074605E000BFFFF73AFCC01B0228CA
:1019C000C6D830688007F7D50EE0C7F800A0FFF74B
:1019D0002FFC074605E000BFFFF72AFCC01B0228CA
:1019E000B6D830688007F7D42078400776D5A0684D
:1019F000002740B1012806D0052804D04FF4C67155
:101A000079A002F023FDDFF818B20BF13C0BDBF8F4
:101A10000000C0000DD4DBF8001041F08051CBF87D
:101A2000001000E038E1DBF80000012700F08050F2
:101A300000907E4E3068C00511D4306840F480704C
:101A40003060FFF7F5FB009006E000BFFFF7F0FB0A
:101A50000099401A022891D83068C005F6D5704E1A
:101A6000A0686C3601280FD00528306810D020F00F
:101A700001003060306820F004003060A068B8B128
:101A8000FFF7D6FB00900FE0306840F00100F4E76C
:101A900040F004003060F7E7FFF7CAFB0099411AF5
:101AA00041F2883081428BD830688007F4D50EE04F
:101AB000FFF7BEFB009007E0FFF7BAFB0099411A61
:101AC00041F2883081428BD830688007F4D42FB13E
:101AD000DBF8001021F08051CBF80010A06900283D
:101AE00076D0012809D0022807D040F2CF113EA0BD
:101AF00002F0ACFCA0690028F2D04948001D006843
:101B0000C0F381000228A0696DD0022805D0C8F872
:101B100060A0FFF78DFB044694E0E06938B1B0F5B2
:101B2000800F04D04FF4EC712FA002F08FFC206ADC
:101B30003F2804D940F2D9112BA002F087FC606A3B
:101B40003238B0F5BF7F04D94FF4ED7126A002F012
:101B50007DFCA06A02280AD0042808D0062806D0F6
:101B6000082804D040F2DB111FA002F06FFCE06AED
:101B7000801E0D2804D94FF4EE711BA002F066FC04
:101B80004746C8F860A0FFF753FB064605E000BFD4
:101B9000FFF74EFB801B022851D828688001F7D43C
:101BA000D4E907010843A16A214A490802EB01412F
:101BB000626A41EA8211084394F82C1040EA0161FC
:101BC000C9F8001001203866FFF732FB044606E032
:101BD00064E000BFFFF72CFB001B02282FD8286809
:101BE0008001F7D55AE031E02E2E2F4472697665D8
:101BF00072732F53544D3332463478785F48414CDA
:101C00005F4472697665722F5372632F73746D33FC
:101C100032663478785F68616C5F7263632E63004C
:101C20000438024000004742800E474200700040E6
:101C30000000FFFFFFF7FCFA001B022802D9032077
:101C4000BDE8F88F28688001F4D427E00128F7D098
:101C5000D9F80000E26900F4800191421CD1226AA7
:101C600000F03F01914217D147F6C071626A01400E
:101C7000B1EB821F10D1A26A4FF0FF3300F4403164
:101C800003EB5202B1EB024F06D194F82C1000F096
:101C90007060B0EB016F01D00120D1E70020CFE7E9
:101CA00010B5401EB0F1807F01D3012010BD4FF070
:101CB000E02460610F21601701F0D2FD0020A061D7
:101CC00007202061002010BD704770472DE9F05FAC
:101CD000044600683A4E3B4FDFF8EC80DFF8EC90AA
:101CE000DFF8ECA00D464FF0804BB04215D05845C0
:101CF00013D0B84211D040450FD048450DD04FEA1F
:101D0000B641884209D03349884206D0504504D0B4
:101D100040F2B17130A002F099FB286890B1102810
:101D200010D020280ED030280CD040280AD05028BF
:101D300008D0602806D0702804D040F2B27126A0E6
:101D400002F084FB6868802805D020B140F2B371AE
:101D500021A002F07BFB94F83C0001282DD0012249
:101D600084F83C20022084F83D00216848688B6894
:101D700020F0700C286840EA0C0048602068B042EF
:101D80000FD058450DD0B8420BD0404509D048453A
:101D900007D0504505D01F49884202D01E498842CD
:101DA00004D1696823F080031943816084F83D20E1
:101DB000002084F83C00BDE8F09F0220FBE7000013
:101DC000000001400004004000080040000C0040FA
:101DD00000040140001400402E2E2F4472697665E5
:101DE00072732F53544D3332463478785F48414CE8
:101DF0005F4472697665722F5372632F73746D330B
:101E000032663478785F68616C5F74696D5F65789D
:101E10002E630000004001400018004010B504008F
:101E200058D03F49206888422BD0B0F1804F28D04D
:101E30003C49884225D03C49884222D03B498842CF
:101E40001FD03B4988421CD03A49884219D03A49B0
:101E5000884216D03949884213D03949884210D077
:101E6000384988420DD0384988420AD037498842DB
:101E700007D03749884204D040F2131135A002F050
:101E8000E5FAA06860B110280AD0202808D04028C0
:101E900006D0602804D04FF48A712EA002F0D6FA42
:101EA000206950B1B0F5807F07D0B0F5007F04D035
:101EB00040F2151127A002F0C9FAA06930B18028BC
:101EC00004D04FF48B7123A002F0C0FA94F83D00C7
:101ED00010B107E0012010BD002084F83C0020462E
:101EE00000F054F8022084F83D00211D206801F024
:101EF00049FA012084F8460084F83E0084F83F0047
:101F000084F8400084F8410084F8420084F84300DB
:101F100084F8440084F8450084F83D00002010BD9A
:101F2000000001400004004000080040000C004098
:101F30000010004000140040000401400040014037
:101F4000004401400048014000180040001C0040CF
:101F5000002000402E2E2F447269766572732F5335
:101F6000544D3332463478785F48414C5F4472694F
:101F70007665722F5372632F73746D3332663478C3
:101F8000785F68616C5F74696D2E630008B50168E5
:101F90001448B1F1804F14D0134A914220D1016806
:101FA00041F0100101600068002200F01000009074
:101FB00011463620FFF7D0F93620BDE80840FFF77C
:101FC00099B9016841F0010101600068002200F048
:101FD0000100009011461C20FFF7BEF91C20ECE721
:101FE00008BD000040380240001000402DE9F05FBD
:101FF000044600682F4D304E304FDFF8C480DFF8C4
:10200000C490DFF8C4A0DFF8C4B0A84226D0B0F175
:10201000804F23D0B04221D0B8421FD040451DD0C0
:102020004FEAB541884219D02949884216D048451F
:1020300014D0504512D0274988420FD026498842F3
:102040000CD058450AD02549884207D024498842F7
:1020500004D040F2CF1123A002F0F8F994F83D002B
:10206000012802D00120BDE8F09F022084F83D0045
:102070002068C16841F00101C1602068A8420ED00B
:10208000B0F1804F0BD0B04209D0B84207D04045E4
:1020900005D0484503D0504501D0584504D181684A
:1020A00001F00701062903D0016841F00101016038
:1020B0000020D8E700000140000400400008004074
:1020C000000C0040000401400040014000180040A6
:1020D000001400400044014000480140001C004042
:1020E000002000402E2E2F447269766572732F53A4
:1020F000544D3332463478785F48414C5F447269BE
:102100007665722F5372632F73746D333266347831
:10211000785F68616C5F74696D2E63002DE9F84F1C
:1021200005460020009095F83C000C46012841D05F
:10213000012085F83C00022085F83D0020684FF41E
:10214000805B584516D0B0F5005F13D090B11028D1
:1021500010D020280ED030280CD040280AD050288B
:1021600008D0602806D0702804D041F2BB41D4A02A
:1021700002F06CF92868816821F0770121F47F4131
:1021800081602068DC49DD4ADD4BDE4EDE4FDFF842
:102190007CC3DFF87C834FF080494FF4004A50281D
:1021A0007ED00FDC202804D007DC0028FBD01028CC
:1021B00077D161E10220BDE8F88F3028F9D04028BE
:1021C000F6D126E160286DD0702874D0584544D0EF
:1021D0004FF400584045EBD1286888420ED048455E
:1021E0000CD090420AD0984208D0B04206D0B842F3
:1021F00004D041F2E641B2A002F028F9A06858B13B
:10220000584509D0404507D0B0F5405F04D041F2B1
:10221000E941ABA002F01AF96068504509D040B11D
:10222000022806D00A2804D041F2EA41A4A002F014
:102230000DF9E0680F2804D941F2EB41A0A002F0AB
:1022400005F9D4E90121E368286801F0FFF828685E
:10225000816841F48041816029E128688842FBD08F
:102260004845F9D09042F7D09842F5D0B042F3D02B
:10227000A8498842F0D0A8498842EDD0B842EBD0B6
:102280006045E9D0A5498842E6D0A5498842E3D017
:102290004045E1D0A3498842DED0A349884203E00B
:1022A0004FE002E180E006E0D6D041F2C74184A0D1
:1022B00002F0CCF8FBE02868884212D0484510D0E4
:1022C00090420ED098420CD0B0420AD0B84208D00A
:1022D000604506D0404504D041F2CE4178A002F0DE
:1022E000B5F8A06860B158450AD0B0F5005F07D0D6
:1022F000B0F5405F04D041F2D14171A002F0A6F8E0
:102300006068504509D040B1022806D00A2804D0A0
:1023100041F2D2416AA002F099F8E0680F2804D98E
:1023200041F2D34166A002F091F8D4E90121E368BB
:10233000286801F08BF82968886840F07700886089
:10234000B5E02868884212D0484510D090420ED09F
:1023500098420CD0B0420AD0B84208D0604506D0AE
:10236000404504D041F2FA4155A002F06FF8606890
:10237000504509D040B1022806D00A2804D041F2C5
:10238000FD414FA002F062F8E0680F2804D941F245
:10239000FE414BA002F05AF8E2686168286801F03B
:1023A00067F85021286831E02868884212D04845F3
:1023B00010D090420ED098420CD0B0420AD0B84211
:1023C00008D0604506D0404504D041F20A513CA0F7
:1023D00002F03CF86068504509D040B1022806D0B0
:1023E0000A2804D041F20D5135A002F02FF8E06820
:1023F0000F2804D941F20E5131A002F027F8E2680B
:102400006168286801F045F86021286801F028F823
:102410004DE02868884212D0484510D090420ED036
:1024200098420CD0B0420AD0B84208D0604506D0DD
:10243000404504D041F21A5121A002F007F860682B
:10244000504509D040B1022806D00A2804D041F2F4
:102450001D511BA001F0FAFFE0680F2804D941F2DA
:102460001E5117A001F0F2FFE2686168286800F0D1
:10247000FFFF40212868C9E72868884212D04845F4
:1024800010D090420ED098420CD0B0420AD0B84240
:1024900008D0604506D0404504D041F22D5108A037
:1024A00001F0D4FF21682868B0E7012000900120E6
:1024B00085F83D00002085F83C0000987BE6000090
:1024C0002E2E2F447269766572732F53544D33321A
:1024D000463478785F48414C5F4472697665722F64
:1024E0005372632F73746D3332663478785F68612A
:1024F0006C5F74696D2E63000000014000040040B1
:1025000000080040000C0040000401400040014071
:10251000001800400010004000140040004401403A
:1025200000480140001C004000200040704770B58A
:102530000446006801694FF00005C943890715D4B6
:10254000C168C943890711D4E91E016101202077C0
:10255000206880698007204602D0FFF7E7FF04E08B
:1025600000F098F8204600F096F825772068016979
:10257000C943490717D4C168C943490713D46FF049
:1025800004010161022020772068806910F4407FF7
:10259000204602D0FFF7CAFF04E000F07BF8204697
:1025A00000F079F8257720680169C943090716D436
:1025B000C168C943090712D46FF008010161042002
:1025C00020772068C0698007204602D0FFF7AEFF61
:1025D00004E000F05FF8204600F05DF82577206801
:1025E0000169C943C90617D4C168C943C90613D4D0
:1025F0006FF010010161082020772068C06910F495
:10260000407F204602D0FFF791FF04E000F042F83F
:10261000204600F040F8257720680169C943C907C2
:1026200008D1C168C943C90704D1891E0161204688
:1026300000F032F820680169C943090609D4C1686D
:10264000C943090605D46FF0800101612046FFF7F8
:102650003BFB20680169C943490609D4C168C943E5
:10266000490605D46FF040010161204600F02CF8C6
:1026700020680169C94389060BD4C168C94389062A
:1026800007D46FF0200101612046BDE87040FFF7DC
:102690001CBB70BD704770470168084881420CD16F
:1026A000074A6FF001011268116106490A8842F475
:1026B00000420A800168002101607047001000405C
:1026C000D4050020000000207047704770470000CC
:1026D000F8B5016804460868CA684B6910F00F0F26
:1026E0004FF000055AD003F0010602F4907737430B
:1026F00065D0C10705D0D10503D5216C41F001019A
:102700002164410705D5D90703D0216C41F00201AE
:102710002164810705D5D90703D0216C41F004015C
:102720002164010707D502F02001314303D0216C59
:1027300041F008012164216C00293BD0800604D5BA
:10274000900602D5204600F0E5FE20684069216C25
:10275000C0F3801001F00801014320462BD000F0A7
:10276000B2FE20684069400621D52068143050E848
:10277000001F21F0400140E80012002AF5D1A06BB3
:10278000A8B16C490165A06BFEF753FB002811D07E
:10279000A06B016D01B0BDE8F040084783060ED57F
:1027A00093060CD52046BDE8F84000F0B3BE2046A5
:1027B000FFF78CFFF8BDFFF789FF2564F8BD266B96
:1027C0002023012E79D1C60677D5D60675D508689F
:1027D000486800904869400640D5A16B0868406889
:1027E0000004000CEAD0A28D8242E7D9E085C869D6
:1027F000B0F5807F2DD020680C3050E8001F21F408
:10280000807140E80012002AF5D12068143050E8A9
:10281000001F21F0010140E80012002AF5D12068D4
:10282000143050E8001F21F0400140E80012002A57
:10283000F5D184F83E30256320680C3050E8001F45
:1028400021F0100140E80012002AF5D1A06BFEF73C
:10285000A7FAA08DE18D401A81B229E0A08DE18D0B
:10286000401A81B2E08D0028A8D00029A6D02068A7
:102870000C3050E8002F22F4907240E80026002E21
:10288000F5D12068143050E8002F22F0010240E812
:102890000026002EF5D184F83E30256320680C30E8
:1028A00050E8002F22F0100240E80023002BF5D161
:1028B0002046FFF70AFFF8BDFFE705062BD51506F2
:1028C00029D594F83D002128F5D1A068B0F5805FA6
:1028D00001D12069B0B1206A411C216221680078D1
:1028E0004860E08C401E0004000CE084E3D12068C6
:1028F000C16821F08001C1602068C16841F04001D9
:10290000C160D8E7206A0088C0F308004860206AE8
:10291000801C2062E5E74006CDD55006CBD5CA68BD
:10292000204622F04002CA6084F83D3000F02BF9C6
:10293000C1E70000B734000870B5040023D0A069D7
:102940003E4900283E4A3F4B3F4D20681DD08842FB
:102950000CD090420AD0984208D0A84206D04FF43A
:10296000B9713AA001F072FDA06938B3A069B0F561
:10297000807F23D0B0F5007F20D0B0F5407F1DD000
:1029800040F2731117E0012070BD884216D09042CA
:1029900014D0984212D03C4988420FD03B4988421B
:1029A0000CD0A8420AD03A49884207D03949884217
:1029B00004D040F2771125A001F048FDA06838B19D
:1029C000B0F5805F04D040F2791120A001F03EFD07
:1029D000E06938B1B0F5004F04D04FF4BD711BA0D1
:1029E00001F034FD94F83D00002520B984F83C50F6
:1029F000204600F051F8242084F83D002068C1688A
:102A000021F40051C160204600F0E4FD2068016916
:102A100021F4904101612068416921F02A0141615E
:102A20002068C16841F40051C1602564202084F809
:102A30003D0084F83E00002070BD00000010014001
:102A40000044004000480040001401402E2E2F4456
:102A50007269766572732F53544D333246347878E9
:102A60005F48414C5F4472697665722F5372632FE1
:102A700073746D3332663478785F68616C5F75614A
:102A800072742E6300000000004C004000500040B3
:102A900000780040007C0040F0B587B00546142166
:102AA0006846FDF7D7FBDFF8C4C02868002430492A
:102AB0000222032307272F4E604530D12C481430C3
:102AC000D0F800C04CF0100CC0F800C0006800F056
:102AD00010000590086840F0010008600868694629
:102AE00000F00100059058028DE81500CDE903378C
:102AF0003046FEF7D3F9002211462520FEF72CFCC4
:102B00002520FEF7F7FB2868C16841F02001C1606D
:102B10001948048019480168046007B0F0BD184DD9
:102B2000A842FAD112481030056845F40035056016
:102B3000006800F400300590086840F0010008606B
:102B40000868694600F0010005900C208DE815002A
:102B5000CDE903373046FEF7A1F9002211462620C1
:102B6000FEF7FAFB2620FEF7C5FBD6E70010014072
:102B700030380240000002400000002000100040F9
:102B80000044004070477047FEE7000070B50D4CF0
:102B90000025C4F890520C48016821F4406101609E
:102BA000016841F480610160C4F89452022004F588
:102BB000247401F0A4FC01202060022001F09FFC9D
:102BC000256070BD00804342001C02400E4810B5D5
:102BD000016886B041F0800101600068012400F0C6
:102BE000800005903020CDE900040220CDE90240AC
:102BF00069460648FEF752F90548C0F89042C0F809
:102C0000944206B010BD000030380240001C024063
:102C10000080434270B50D48016821F440610160B5
:102C2000016841F480610160094C0120C4F89402FC
:102C3000C4F89002042004F5247401F060FC00251F
:102C40006560042001F05BFC256070BD001C024043
:102C50000080434270B50D48016821F44061016075
:102C6000016841F480610160094C0020C4F89002C1
:102C7000C4F89402042004F5247401F040FC0125FA
:102C80002560042001F03BFC656070BD001C024023
:102C9000008043422DE9F04106461448016821F4C2
:102CA00040610160016841F480610160104C0027BF
:102CB000C4F890723D464FF00108F009C4F8940240
:102CC0007006060E022001F01AFCC4F89082022061
:102CD00001F015FCC4F89072022001F010FC6D1C8C
:102CE000EDB2082DE9D3BDE8F0810000001C0240E0
:102CF000008043421FB500211548009101910291C7
:102D0000124A039102604FF48032C0E9012101248C
:102D10000161047680F820100E4AC0E90A21C461DE
:102D2000C16080F830104461FDF7FAFE08B1FDF78C
:102D3000FCFD07200094CDE9014069460448FDF7F9
:102D4000F7FD002801D0FDF7F0FD1FBD0020014078
:102D5000440500200100000F2DE9F04F87B0142139
:102D60006846FDF777FA68480024016841F01001D1
:102D70000160016801F010010591016841F4807162
:102D80000160016801F480710591016841F004015E
:102D90000160016801F004010591016841F0200122
:102DA0000160016801F020010591016841F0800196
:102DB0000160016801F080010591016841F00101A5
:102DC0000160016801F001010591016841F0020113
:102DD0000160016801F002010591016841F04001C4
:102DE0000160016801F040010591016841F00801AE
:102DF00001600068DFF814B100F0080005900122BE
:102E000030215846FEF7DEF94FF480590122494639
:102E10003F48FEF7D7F94FF6FF7603250096CDE938
:102E2000015469463B48FEF739F83011CDE90005F9
:102E3000694602943848FEF731F80096CDE901540E
:102E400069463648FEF72AF80096CDE901546946EE
:102E50003348FEF723F801274FF48810CDE90070BE
:102E6000DFF8C0A04FF002086946CDF80880504650
:102E7000FEF714F84FF6CC70CDE9000569460294D0
:102E80005846FEF70BF83020009001AA112082E886
:102E9000810169465846FEF701F841F6F010CDE988
:102EA0000005694602945046FDF7F8FF4FF6E770BB
:102EB000CDE90005694602941B48FDF7EFFF009637
:102EC000CDE9015469461948FDF7E8FF4EF6FF7059
:102ED000CDE90005694602940D48FDF7DFFFCDF806
:102EE0000090CDE90174694609480397FDF7D6FFC4
:102EF000002211460620FEF72FFA0620FEF7FAF907
:102F000007B0BDE8F08F000030380240001C0240DE
:102F1000000C024000100240002002400008024065
:102F20000014024000000240000402400018024069
:102F300010B586B0002417480094019402940394BD
:102F400004944FF08041059401605921C0E90114B7
:102F50001149C0E9031480218161FEF75FFF08B1C8
:102F6000FDF7E3FC4FF48050009069460948FFF7F5
:102F7000D5F808B1FDF7D9FC049404A905480594D7
:102F8000FEF7A4FE08B1FDF7D0FC0248FFF72EF8CB
:102F900006B010BD8C050020809698001CB500245A
:102FA000104800940E490194016042F22731C0E9B3
:102FB000011442F21071C16080218161FEF72EFF81
:102FC00008B1FDF7B2FC0094694606480194FEF78B
:102FD0007DFE08B1FDF7A9FC0248FFF707F81CBD0C
:102FE00000100040D40500200C4810B50A490160CB
:102FF0004FF4E1314160002181600C22C160C0E9E1
:1030000004128161C161FFF797FC002803D0BDE87D
:103010001040FDF78ABC10BD001001401C060020C6
:103020000C4810B50A4901604FF4E13141600021BC
:1030300081600C22C160C0E904128161C161FFF7A7
:103040007BFC002803D0BDE81040FDF76EBC10BD2E
:103050000044004060060020FEE7FEE730B4002197
:10306000084B0A465FF0000003EBC004401CC0B2EE
:1030700062548028F8D3491CC9B20829F2D330BC65
:1030800000F060B87C00002010B54FF47A7001F0B9
:1030900029FAAE2000F0A3FB202000F0A0FB1020B6
:1030A00000F09DFBB02000F09AFBC82000F097FBD9
:1030B000002000F094FB102000F091FB402000F075
:1030C0008EFB812000F08BFBFF2000F088FBA1200D
:1030D00000F085FBA62000F082FBA82000F07FFB1B
:1030E0003F2000F07CFBA42000F079FBD32000F00F
:1030F00076FB002000F073FBD52000F070FBF02081
:1031000000F06DFBD92000F06AFB222000F067FB85
:10311000DA2000F064FB122000F061FBDB2000F0FD
:103120005EFB202000F05BFB8D2000F058FB14209C
:1031300000F055FBAF2000F052FBBDE81040FFF758
:103140008DBF000070B50E4E002400BF04F1B0002A
:10315000C0B200F044FB002000F041FB102000F062
:103160003EFB002506EBC500005D00F04FFB6D1C2B
:10317000EDB2802DF6D3641CE4B2082CE6D370BD0A
:103180007C00002010B57F2811D83F290FD8CB082C
:1031900001F0070101248C40E1B2054C002A04EB48
:1031A000C000C25C01D00A4300E08A43C25410BD93
:1031B0007C0000202DE9FF4F1F460C46580700D029
:1031C000012000EBD700790810FB01F0203A00F055
:1031D000FF0902F0FF0BA246002532E0B9F10C0F07
:1031E0000DD0B9F1100F2ED1184901EB0B104FF093
:1031F0000008465D16F0800F07D0012206E0144952
:103200000BEB4B0001EB8000F1E700222146009818
:10321000FFF7B8FF7006641C060EE4B2A4EB0A00C8
:10322000B84205D100985446401CC0B2009006E058
:1032300008F1010000F0FF08B8F1080FDAD36D1CA7
:10324000EDB24D45CAD3BDE8FF8F0000F04B00083A
:103250007C470008F0B51E4617460C4605461EE0A2
:103260008021A1EB5601A94202D20025A119CCB2BE
:10327000C6F14001A14201DA002425460D2A01D001
:103280000A2A01D1A119CCB25E2804D833462146BE
:103290002846FFF78FFF05EB5600C5B27F1C387834
:1032A000024620385E28DBD90D2AD9D00A2AD7D089
:1032B000F0BD70477047FDF7C1BF000030B593B057
:1032C00030216846FCF7C6FF14210CA8FCF7C2FFAA
:1032D00020480025016841F080510160006800F03D
:1032E000805011901C48016841F440410160006821
:1032F000022400F44040119001200090000401904D
:103300008001CDE90640192008904FF4B470CDE952
:10331000090404200B906846FEF76EFA08B172B6F5
:10332000FEE7FEF7A9F808B172B6FEE70CA90F2078
:1033300081E831004FF4A0500F904FF4805010906E
:1033400005210CA8FEF7D0F8002801D072B6FEE7E0
:1033500013B030BD403802400070004002480168A0
:1033600041F470010160704788ED00E00148FFF70B
:10337000DEB800008C0500200148FFF7D8B8000037
:10338000D4050020F0B50268254C264D264E274F67
:10339000274B4FF0804CA04209D0604507D0A8428F
:1033A00005D0B04203D0B84201D0984204D122F0F7
:1033B000700E4A6842EA0E02A0421BD0604519D046
:1033C000A84217D0B04215D0B84213D0984211D0BD
:1033D000184DA8420ED0184DA8420BD0174DA84248
:1033E00008D0174DA84205D0164DA84202D0164D60
:1033F000A84203D122F44075CA682A434D6922F0DD
:1034000080022A4302608A68C2620A688262A0421D
:1034100001D0984201D10969016301214161F0BDE8
:10342000000001400004004000080040000C004083
:1034300000040140004001400044014000480140B8
:1034400000180040001C00400020004010B58468B7
:1034500042EA032224F47F440A432243826010BDDF
:10346000826822F070020A4342F0070181607047CF
:1034700010B5036A046A24F001040462846924F02C
:10348000F00444EA021423F00A020A43846102624F
:1034900010BD10B5036A23F0100303628369046A48
:1034A00023F4704343EA023224F0A00343EA0111FB
:1034B0008261016210BD10B5806B0021C185C1849D
:1034C000FFF704F910BD01680C3151E8002F22F418
:1034D000907241E80023002BF5D10168143151E8C6
:1034E000002F22F0010241E80023002BF5D1016BEF
:1034F000012909D101680C3151E8002F22F0100296
:1035000041E80023002BF5D1202180F83E10002156
:103510000163704708B590F83E10222901D00220BF
:1035200008BD82684FF480539A4201D1016921B1EC
:10353000816A9A421BD04AB10AE00268816A5268E5
:10354000C2F308020A80816A891C08E0026972B12C
:103550000268526802F07F020A70816A491C816227
:10356000C18D491E0904090CC18503D019E0026808
:103570005268F1E70168CA6822F02002CA60016857
:10358000CA6822F48072CA6001684A6922F00102A6
:103590004A61202180F83E10016B012903D0FFF71A
:1035A000F1FA002008BD0021016301680C3151E8E7
:1035B000002F22F0100241E80023002BF5D1016812
:1035C0000A68D20602D50A6849680091818DFFF722
:1035D0007CF8E6E770B5044640685449884204D94F
:1035E00040F6566152A000F031FFE06838B1B0F506
:1035F000005F04D040F657614DA000F027FF20691E
:1036000050B1B0F5806F07D0B0F5C06F04D040F670
:10361000586147A000F01AFF60694FF6F371084245
:1036200000D120B940F6596141A000F00FFF206899
:103630000169E26821F44051114301612169A068E8
:10364000E26908436169114322680843D16849F27D
:103650000C6399430143D16020684169A26921F458
:1036600040711143416141492068884202D040497C
:10367000884202D1FEF77EF801E0FEF76BF8E269BE
:103680000023192164253226B2F5004F626828D044
:10369000A0FB0101930F9200FCF7A4FD0146B0FBD3
:1036A000F5F06FF01802504301EB800006EB0010BC
:1036B000B0FBF5F000F0F002B1FBF5F002EB001208
:1036C000B1FBF5F06FF01803584301EB800006EBF7
:1036D0000010B0FBF5F000F00F0021681044886086
:1036E00070BDA0FB010192185B41FCF77BFD014618
:1036F000B0FBF5F00201B1FBF5F06FF01803584391
:1037000001EB800006EBC000B0FBF5F000F0F80024
:1037100002EB4002B1FBF5F0584301EB800006EBF1
:10372000C000B0FBF5F000F00700D6E7A037A0001E
:103730002E2E2F447269766572732F53544D333297
:10374000463478785F48414C5F4472697665722FE1
:103750005372632F73746D3332663478785F6861A7
:103760006C5F756172742E630000000000100140F0
:1037700000140140124810B500680068C04380067C
:103780001AD4104840684FF00002C4B20E480188B5
:10379000090402D5028011040ED4018864290CD2D8
:1037A0000A4B5A6219B91A6842F001021A60044AB7
:1037B00088325454491C018010BD41F40041FAE79D
:1037C0001C060020001001400000002000100040F6
:1037D0000148FEF77DBF000060060020FEE710B53F
:1037E0000446FFF717FA7820FFF754FAFFF7CEF9EF
:1037F0000020FFF74FFAFFF7C9F92046FFF74AFA12
:10380000FFF7C4F9BDE81040FFF724BA10B504462D
:10381000FFF700FA7820FFF73DFAFFF7B7F94020ED
:10382000FFF738FAFFF7B2F92046FFF733FAFFF750
:10383000ADF9BDE81040FFF70DBA000037B51446EA
:103840000846064B6A46214600F0ECF804466946F5
:10385000002000F07EFC20463EBD000053410008E1
:103860000907090E002804DB00F1E02080F80014AD
:10387000704700F00F0000F1E02080F8141D704741
:1038800002E008C8121F08C1002AFAD17047704729
:10389000002001E001C1121F002AFBD17047000087
:1038A0002DE9FF5F82B00021DDE90430020DDDF873
:1038B00040B0034318D044F61050A2F2FF32424306
:1038C0001514119801281FD0A5EB0B00401C5FEACE
:1038D000000A4FF000064E4FDFF83891B0465046D0
:1038E00015D5CAF1000413E0119801244AA3012858
:1038F00001D16FEA0B010298119AC0E90031C0E9C9
:10390000024206B0BDE8F09FCBF10000DFE70446BD
:103910000021404A491842EB0450CDE9001012E062
:10392000E00707D032463B4640464946FCF7A9FD32
:103930008046894632463B4610461946FCF7A1FDB3
:1039400006460F466410002CEAD1DDE90401DDE9EA
:103950000023BAF1000F06DAFCF793FD42464B460E
:10396000FCF78FFD05E0FCF7FEFD42464B46FCF7F9
:10397000FAFD04460E460022284BFCF77BFE03D8D6
:103980004FF0FF30014607E00022254B204631462C
:10399000FCF7D0FCFCF756FE102409E0002C0ADBF3
:1039A0000A220023FCF71EFC039B30321A55641ECA
:1039B00050EA0102F2D1641C039AC4F111031444C9
:1039C000119A012A03D0012208430DD10AE00843CD
:1039D00004D000204FF0110B119072E7A3EB0B0500
:1039E0006D1E0DE05B4504DD4FF0000205F10105A1
:1039F00004E003DA4FF00002A5F10105002AECD043
:103A000002981199C0E90231C0E9004579E7000048
:103A1000000014400000F03F300000000000F043C0
:103A20000000E03F2DE9FF4F95B09B4689460646D2
:103A300000250FE2252877D100242746F84A0121E6
:103A4000059400E0044316F8013F203B01FA03F01F
:103A50001042F7D130782A2811D06FF02F03307838
:103A6000A0F13002092A16D8059A44F0020402EBAC
:103A7000820203EB42021044761C0590EFE759F8EE
:103A8000042B0592002A03DA504244F400540590B6
:103A900044F00204761C30782E2816D116F8010F57
:103AA00044F004042A280DD06FF02F023078A0F1E2
:103AB0003003092B09D807EB870302EB4303C71830
:103AC000761CF3E759F8047B761C30786C280FD00D
:103AD00006DC4C2817D068280DD06A2814D104E0E1
:103AE000742810D07A280FD10DE044F400140AE0B5
:103AF00044F4801401E044F440147278824202D10C
:103B000004F58014761C761C307866280BD013DC04
:103B1000582877D009DC002875D04528F6D04628EB
:103B2000F4D047281AD19DE118E0632835D06428E5
:103B300079D0652812D195E1702873D008DC672808
:103B4000F1D069286FD06E280DD06F2806D1B5E06E
:103B500073282CD0752875D0782874D05A461799B8
:103B600090476D1C75E1C4F30250022809D0032868
:103B70000DD0D9F8001004280DD00D6009F104090A
:103B800067E1D9F80010EA17C1E90052F6E7D9F861
:103B900000100D80F2E70D70F0E719F8041B8DF8A6
:103BA000001000208DF80100EA46012003E059F8DA
:103BB00004AB4FF0FF3061074FF0000102D40DE07D
:103BC00008F101018846B9420FDA8045F8DB1AF89E
:103BD00008100029F4D108E008F10101884681426B
:103BE000FADB1AF808100029F6D105985B46A0EB1D
:103BF000080721463846179A00F094FA284400EB4B
:103C0000080507E04DE029E10DE01AF8010B5A46DE
:103C100017999047B8F10108F7D25B46214638461C
:103C2000179A13E142E00A220092C4F302524FF0C5
:103C3000000A022A08D059F804CB032A4FEAEC7193
:103C40000AD00DE029E02AE009F1070121F007027E
:103C5000F2E802C1914609E00FFA8CFC4FEAEC71E0
:103C6000042A03D14FFA8CFC4FEAEC71002907DAE1
:103C70000A460021DCF1000C61EB02012D2202E07A
:103C8000220504D52B228DF80420012203E0E2074F
:103C900001D02022F7E7904659E00A2102E01022E5
:103CA0000DE010214FF0000A00910BE010224FF0C0
:103CB000000A44F004040827009203E008224FF0B1
:103CC000000A0092C4F30252022A05D059F804CB2C
:103CD0000021032A08D009E009F1070121F00702B9
:103CE000F2E802C1914605E01FFA8CFC042A01D1DA
:103CF0000CF0FF0C4FF00008220728D5702806D0E2
:103D0000009B83F0100353EA0A0305D00EE0402223
:103D10008DF80420012208E05CEA010206D030227E
:103D20008DF804208DF8050002229046009B83F058
:103D3000080353EA0A030AD15CEA010201D16207CF
:103D400005D530228DF804204FF001087F1E582839
:103D500004D034A003900EA802900DE036A0F9E73D
:103D600053466046009AFCF73DFA84460398825C0D
:103D70000298401E029002705CEA0100F0D10298A5
:103D800006A9081A00F1200A600702D524F480343D
:103D900000E00127574502DDA7EB0A0000E0002004
:103DA00000EB0A01009005984144401A0590E00399
:103DB00006D45B462146179A059800F0B3F90544EE
:103DC000002706E001A85A46C05D179990476D1C70
:103DD0007F1C4745F6DBE0030CD55B462146179A6E
:103DE000059800F09FF9054404E030205A461799E1
:103DF00090476D1C0099481E00900029F5DC08E0F2
:103E0000029802995A460078491C029117999047E6
:103E10006D1CBAF10001AAF1010AF1DC65E10000B4
:103E20000928010030313233343536373839616290
:103E30006364656600000000303132333435363754
:103E400038394142434445460000000000F058F92B
:103E50000544761C307800287FF4ECAD19B0284674
:103E6000BDE8F08F620700D4062709F1070222F0AF
:103E7000070CFCE80223E14603F000485FEA080C67
:103E800002D00FF2702C0DE05FEA045C02D50FF255
:103E9000682C07E05FEAC47C02D00FF2602C01E0DE
:103EA000AFF2700C4FF0FF3823F00043CDF850C054
:103EB00065280CD006DC452809D046281DD04728A7
:103EC0003DD13DE0662818D067287ED138E000213A
:103ED000112F01DB112000E0781CCDE9000106A9BB
:103EE0000EA8FFF7DDFCDDE90F010E9A039100211A
:103EF000009207F1010A04914DE04FF00040009755
:103F0000CDE9011006A90EA8FFF7CAFCDDE90F02F2
:103F100003920E9B11990022DDF80CA000930492ED
:103F200011B9791C00EB010AB7EB0A0004D4C0F107
:103F3000FF3007F1010A0490AAEB0700019044E06A
:103F4000012F00DA01270021112F01DD112000E0EF
:103F50003846CDE9000106A90EA8FFF7A1FCDDE96E
:103F60000F010E9A0391002104910092BA46210795
:103F70000CD40399514500DA8A46BAF1010F05DDE8
:103F8000009AAAF10101515C302908D0B84202DA46
:103F900010F1040F06DA0121CDE9011015E0AAF1B4
:103FA0000101E9E7002805DC049901440491AAEB2A
:103FB000000102E0411C514500DD8A460499401A87
:103FC000401C01904FF000400290200704D401985B
:103FD000504501DBCDF8048000208DF84F00029899
:103FE0000DF14F07B0F1004F25D02B200E90029815
:103FF0004FF0020800280CDA404202902D200E906B
:1040000007E00A210298FCF760F93031029007F8C6
:10401000011DB8F10001A8F10108F2DC02980028A6
:10402000EFD1791E0E980870307800F0200040F033
:10403000450007F8020D12A8C01B00F107081498EC
:10404000007800B1012000EB0A01019801EBE0715A
:1040500005984144401A401E0590E00306D45B4693
:104060002146179A059800F05DF8054414980078E9
:1040700018B15A46179990476D1CE00324D55B464A
:104080002146179A059800F04DF805441CE0049865
:10409000002807DBDDE90301884203DD0098405C6E
:1040A000179901E0179930205A469047049805F176
:1040B0000105401C04900198401E019004D12E205F
:1040C0005A46179990476D1CBAF10001AAF1010AEE
:1040D000DDDC05E017F8010B5A46179990476D1C77
:1040E000B8F10001A8F10108F4DC5B462146179AFB
:1040F0000598ABE62D0000002B000000200000001A
:104100002DE9F041044600251E461746880404D4D4
:1041100005E039462020B0476D1C641EF9D52846BD
:10412000BDE8F0812DE9F041044600251E46904689
:10413000C80301D5302700E02027880404D505E016
:1041400041463846B0476D1C641EF9D52846BDE887
:10415000F0810A68531C0B601070704710B598B05E
:1041600044A10446D1E90001CDE9130143A104AB08
:1041700007C983E8070044A145A2D1E90001CDE9C0
:10418000150107CA07AB83E8070044A20AAB07CAB8
:1041900083E8070044A00DAB07C883E807003FA0F1
:1041A00010AB07C883E8070042A20FCA8DE80F00D2
:1041B00013A92046FCF772F8B8B104A92046FCF711
:1041C0006DF8002817D015A92046FCF767F80028DD
:1041D0001CD007A92046FCF748F800281CD039A1BC
:1041E0003E48FCF769F83EA10AE044A13B48FCF7D1
:1041F00063F849A104E050A13848FCF75DF853A1E9
:1042000036486430FCF758F818B010BD57A1334851
:10421000FCF752F85AA1F3E70AA92046FCF725F863
:1042200028B15CA12D48FCF747F862A1E8E70DA989
:104230002046FCF733F850B110A92046FCF715F8DA
:1042400058B163A12548FCF737F865A1D8E76BA101
:104250002248FCF731F86EA1D2E769462046FCF708
:104260001DF80028D0D16FA11C48FCF725F872A1D9
:10427000C6E70000415445300000000041542B4384
:10428000574D4F44453D310041542B52535400008B
:1042900041542B43574A41500000000041542B43E6
:1042A000495053544152540041542B4349505345B3
:1042B0004E44000041542B4349504D4F44453D313D
:1042C00000000000747279696E6720636F6E6E651E
:1042D0006374696E6720574946492E007C040020AC
:1042E0005749464920636F6E6E656374207375632A
:1042F0006365737366756C6C792E00007475726EED
:10430000206F666620746865206C6F6F70626163F1
:104310006B206D6F64652E007475726E206F66661B
:10432000206C6F6F706261636B207375636365737C
:104330007366756C6C792E0073657420696E2073DA
:104340007461206D6F64652E000000007365742039
:10435000696E20737461206D6F646520737563638B
:1043600065737366756C6C792E0000006D6F6475F3
:104370006C6520726573657474696E672E00000049
:104380007265736574207375636365737366756CAA
:104390006C792E0045737461626C697368696E672D
:1043A0002054435020636F6E6E656374696F6E2E88
:1043B0000000000054435020636F6E6E65637420EC
:1043C0007375636365737366756C6C792E0000009A
:1043D00074637020636F6E6E656374696E672E0020
:1043E00074637020736572766963652068617320F9
:1043F00065737461626C69736865640073656E648B
:10440000696E6720636F6D6D616E642E0000000041
:10441000706C656173652073656E64206D65737380
:10442000616765007472616E73706172656E74208D
:104430006D6F64652E0000007472616E737061723E
:10444000656E74206D6F64650000000070470000A9
:10445000084910B50B880022C3F30E030B800649F0
:10446000CA5401460448FBF700FF002800D0012091
:1044700010BD000000000020A406002070B50F4C05
:1044800020684006FCD52B2565600F2000F02AF837
:1044900020684006FCD565600F2000F023F82068F6
:1044A0004006FCD565604FF4FA7000F01BF8BDE8DB
:1044B0007040142202A103A000F0C2B80010014015
:1044C0004F4B0000415400004FF0E020016941F0E3
:1044D0000401016140F207714161016941F0050188
:1044E0000161704770B5054600244FF47A7603E009
:1044F000304600F004F8641CAC42F9DB70BD10B526
:104500000022B32311464FF0E024584309E0A36989
:104510009BB29342A2EB030201D302F20772114451
:104520001A468842F3DC10BD10B5C82221A122A092
:1045300000F086F8C820FFF7D5FFC8221DA120A0F3
:1045400000F07EF8C820FFF7CDFFC82219A11FA0F8
:1045500000F076F84FF47A642046FFF7C3FFC822D4
:1045600014A11CA000F06CF8C820FFF7BBFFC82204
:1045700010A11BA000F064F82046FFF7B3FFC8228B
:104580000CA11EA000F05CF82046FFF7ABFFC8228C
:1045900008A124A000F054F8C820FFF7A3FFC82208
:1045A00004A124A000F04CF8BDE81040C820FFF79B
:1045B00099BF00004F4B00004154453000000000FF
:1045C00041542B43574D4F44453D310041542B52EC
:1045D0005354000041542B4349504D55583D300031
:1045E00041542B43574A41503D227A78222C2231A4
:1045F00032333435363738220000000041542B4323
:10460000495053544152543D22544350222C22319C
:1046100037322E32372E35332E30222C393030308F
:104620000000000041542B4349504D4F44453D315B
:104630000000000041542B43495053454E440000B4
:104640002DE9F0410F46064601461446002518A004
:1046500000F074F83046FFF781FD0121164800F0A4
:1046600058F8164E15E00A20FFF73CFF308800048A
:104670000FD53846FFF7ECFE30B10F480025032177
:10468000643000F046F807E0022501210CA000F09C
:1046900040F8641EE4B2E6D20020308064210E4867
:1046A000FBF7D8FD04B901252846BDE8F0810000DC
:1046B00025730D0A000000007C040020000000208B
:1046C000676574207468652077726F6E6720726505
:1046D0007475726E00000000A4060020FCF7B6FDA1
:1046E000FEF7ECFDFFF7F0FEFEF736FBFEF77CFC75
:1046F000FEF71EFCFEF752FCFEF792FCFEF7FAFAFC
:10470000FEF764FAFEF7C0FCFFF7B8FEFFF70CFFF8
:10471000FEE770B50D460446FEF7A0FC05EB45002C
:10472000F32101EB8000C1B20C2322460120FEF7E9
:1047300091FDBDE87040FEF705BD00000FB40D48C7
:1047400010B5002403AA0299FFF778F80948FBF78F
:104750009EFD81B20848074A06E003685B06FCD567
:10476000135D4360641CA4B28C42F6D310BC5DF8A8
:1047700014FB0000080000200010014000000000B1
:104780000000000000000000000000003F400000AA
:104790000000000000003000400030004000000039
:1047A00009000BC03D000BC03D00090018C02440AB
:1047B0007FE0224031800000180024C01B000D80E3
:1047C0003240018003801C4027401C80074000408D
:1047D0001000600000000000000000000000000069
:1047E00000001F80204040200000402020401F800B
:1047F00000000000090006001F80060009000000FC
:10480000040004003F800400040000000010006069
:104810000000000000000000040004000400040088
:104820000400000000000040000000000000000044
:10483000002001C006003800400000001F8020401A
:10484000204020401F800000000010403FC000407A
:104850000000000018C02140224024401840000001
:1048600010802040244024401B80000002000D00E6
:1048700011003FC0014000003C80244024402440FF
:10488000238000001F802440244034400380000027
:104890003000200027C03800200000001B8024408A
:1048A000244024401B8000001C0022C022402240E3
:1048B0001F80000000000000084000000000000011
:1048C0000000000004600000000000000000040080
:1048D0000A00110020804040090009000900090079
:1048E0000900000000004040208011000A00040080
:1048F0001800200023402400180000001F802040E2
:10490000274029401F400000004007C039000F0029
:1049100001C0004020403FC0244024401B800000D4
:104920001F802040204020403080000020403FC0B9
:10493000204020401F80000020403FC024402E40E7
:1049400030C0000020403FC024402E003000000056
:104950000F001080204022403380020020403FC0E2
:10496000040004003FC02040204020403FC02040C1
:10497000204000000060202020203FC020002000B8
:1049800020403FC024400B0030C0204020403FC0AA
:1049900020400040004000C03FC03C0003C03C003D
:1049A0003FC0000020403FC00C4023003FC020001B
:1049B0001F802040204020401F80000020403FC03A
:1049C00024402400180000001F802140214020E0E6
:1049D0001FA0000020403FC02440260019C0004016
:1049E00018C0244024402240318000003000204084
:1049F0003FC020403000000020003F8000400040C9
:104A00003F80200020003E0001C007003800200049
:104A1000380007C03C0007C038000000204039C003
:104A2000060039C0204000002000384007C0384050
:104A300020000000304021C02640384020C0000047
:104A4000000000007FE040204020000000007000D7
:104A50000C000380004000000000402040207FE068
:104A600000000000000020004000200000000000C6
:104A700000100010001000100010001000000000D6
:104A800040000000000000000000028005400540DA
:104A900003C0004020003FC00440044003800000E9
:104AA0000000038004400440064000000000038032
:104AB000044024403FC00040000003800540054002
:104AC00003400000000004401FC024402440200098
:104AD000000002E0055005500650042020403FC071
:104AE0000440040003C000400000044027C0004010
:104AF0000000000000100010041027E0000000007B
:104B000020403FC00140070004C004402040204036
:104B10003FC000400040000007C0040007C0040080
:104B200003C00000044007C00440040003C000406C
:104B3000000003800440044003800000041007F0DC
:104B4000045004400380000000000380044004502F
:104B500007F00010044007C00240040004000000F9
:104B6000000006400540054004C0000000000400AD
:104B70001F80044000400000040007800040044003
:104B800007C000400400070004C0018006000400C4
:104B9000060001C0070001C006000000044006C076
:104BA000010006C0044000000410071004E001806A
:104BB000060004000000044005C006400440000058
:104BC0000000000004007BE0402000000000000026
:104BD0000000FFF000000000000040207BE0040027
:104BE0000000000040008000400020002000400045
:104BF00000000000000000000000000000000000B5
:104C00000000000000001FCC000C000000000000AD
:104C10000000080030006000080030006000000064
:104C2000022003FC1E20022003FC1E2002200000A4
:104C300000000E1811043FFF10840C7800000000E3
:104C40000F0010840F3800C0077818840078000027
:104C500000780F8410C411240E9800E4008400082A
:104C60000800680070000000000000000000000064
:104C700000000000000007E01818200440020000B7
:104C8000000040022004181807E0000000000000A7
:104C90000240024001800FF001800240024000000B
:104CA0000080008000800FF80080008000800000FD
:104CB0000001000D000E00000000000000000000D8
:104CC0000000008000800080008000800080008064
:104CD0000000000C000C00000000000000000000BC
:104CE0000000000600180060018006001800200087
:104CF000000007F0080810041004080807F000007E
:104D00000000080408041FFC000400040000000068
:104D100000000E0C10141024104411840E0C00001E
:104D200000000C1810041104110412880C7000000B
:104D3000000000E00320042408241FFC00240000DD
:104D400000001F98108411041104108810700000D6
:104D5000000007F008881104110418880070000092
:104D600000001C00100010FC13001C0010000000CC
:104D700000000E3811441084108411440E380000D5
:104D800000000700088C10441044088807F0000059
:104D9000000000000000030C030C000000000000F5
:104DA00000000000000101060000000000000000FB
:104DB00000000080014002200410080810040000D8
:104DC00002200220022002200220022002200000F5
:104DD00000001004080804100220014000800000B8
:104DE00000000E001200100C106C10800F0000006C
:104DF00003E00C1813E4142417C4082807D000009B
:104E00000004003C03C41C40074000E4001C0004F4
:104E100010041FFC1104110411040E88007000001E
:104E200003E00C1810041004100410081C100000FB
:104E300010041FFC100410041004080807F0000000
:104E400010041FFC1104110417C4100408180000FA
:104E500010041FFC1104110017C01000080000000E
:104E600003E00C181004100410441C7800400000EB
:104E700010041FFC10840080008010841FFC1004AC
:104E80000000100410041FFC1004100400000000B7
:104E900000030001100110011FFE100010000000AF
:104EA00010041FFC110403801464181C100400007B
:104EB00010041FFC1004000400040004000C000097
:104EC00010041FFC1F0000FC1F001FFC100400004A
:104ED00010041FFC0C04030000E010181FFC10005D
:104EE00007F00808100410041004080807F0000078
:104EF00010041FFC10841080108010800F00000030
:104F000007F0081810241024101C080A07F20000EB
:104F100010041FFC1104110011C011300E0C00040C
:104F200000000E1C11041084108410441C38000072
:104F30001800100010041FFC1004100018000000DE
:104F400010001FF810040004000410041FF81000E3
:104F500010001E0011E0001C007013801C001000E7
:104F60001FC0103C00E01F0000E0103C1FC000000C
:104F70001004180C163401C001C01634180C1004AB
:104F800010001C00130400FC13041C00100000009F
:104F90000804101C1064108413041C041018000072
:104FA0000000000000007FFE4002400240020000BE
:104FB000000030000C0003800060001C00030000B3
:104FC00000004002400240027FFE0000000000009E
:104FD00000000000200040004000400020000000D1
:104FE00000010001000100010001000100010001B9
:104FF0000000400040002000000000000000000011
:1050000000000098012401440144014400FC000414
:1050100010001FFC008801040104008800700000DB
:1050200000000070008801040104010400880000F1
:105030000000007000880104010411081FFC000436
:10504000000000F8014401440144014400C800008C
:105050000000010401040FFC1104110411001800E8
:10506000000000D601290129012901C9010600001B
:1050700010041FFC008401000100010400FC000476
:1050800000000104190419FC0004000400000000E1
:105090000000000300010101190119FE00000000D9
:1050A00010041FFC0024004001B4010C01040000A6
:1050B0000000100410041FFC0004000400000000A5
:1050C000010401FC0104010001FC0104010000FCD9
:1050D000010401FC008401000100010400FC000443
:1050E000000000F8010401040104010400F80000BC
:1050F000010101FF00850104010400880070000027
:1051000000000070008801040104010501FF000196
:105110000104010401FC008401040100018000007D
:10512000000000CC01240124012401240198000086
:1051300000000100010007F8010401040000000064
:10514000010001F8000400040004010801FC00044F
:10515000010001800170000C00100160018001005D
:1051600001F0010C003001C00030010C01F0010021
:1051700000000104018C00740170018C0104000026
:10518000010101810171000E001801600180010020
:1051900000000184010C013401440184010C000071
:1051A000000000000000000001003EFC4002400240
:1051B0000000000000000000FFFF000000000000F1
:1051C0000000400240023EFC010000000000000020
:1051D00000006000800080004000400020002000AF
:1051E00000000000000000000000000000000000BF
:1051F00000000000000000000000000000000000AF
:10520000000000000000000000000000000000009E
:105210000000000F80380FFE380F803800000000BB
:10522000000000000000000000000000000001007D
:10523000000600000C0000380000310000060000ED
:105240000C000038000030000000000000000000EA
:1052500061800067F807F98000618000618000616B
:10526000800061800067F807F9800061800000001D
:1052700000000000000001C0E003E0F00630080478
:1052800018081FFFFE040E080787F00381E00000E6
:105290000000000001F000060C00040408060C7079
:1052A00001F9C0000E00003BE000EC1807080804FC
:1052B0000C180003E00000000001E00007F003F814
:1052C00018041C0804170807E1D003C0E00023B04D
:1052D000003C080020080000100000000000000151
:1052E00000003100003200001C000000000000003F
:1052F00000000000000000000000000000000000AE
:10530000000000000000000000000000000000009D
:105310007F0001FFC00780F00C001810000420007F
:10532000020000000000002000021000040C001821
:105330000780F001FFC0007F0000000000000000B7
:1053400000000000000000000000000042000066B5
:1053500000006600003C0000180003FFC0001800B9
:10536000003C0000660000660000420000000000F3
:10537000080000080000080000080000080001FF05
:10538000C000080000080000080000080000080035
:1053900000000000000100003100003200001C008D
:1053A00000000000000000000000000000000000FD
:1053B00000000000000000000800000800000800D5
:1053C00000080000080000080000080000080000B5
:1053D00008000008000000000000000000000000BD
:1053E0003800003800003800000000000000000015
:1053F00000000000000000000000000000000000AD
:10540000000600001C000070000180000E00003843
:105410000000C0000700001C000030000000000079
:10542000000000007F8001FFE00380700600180488
:10543000000804000806001803807001FFE0007FE8
:1054400080000000000000000000010008010008CA
:1054500001000803FFF807FFF8000008000008003B
:10546000000800000000000000000001C03802C079
:1054700058040098040118040218040418061C18A3
:1054800003F81801E0F8000000000000000000012F
:10549000C0E003C0F0040008040808040808061867
:1054A0000803F41801E7F00001E00000000000002C
:1054B000000000000300000D00001100006100006A
:1054C000810803010807FFF80FFFF8000108000139
:1054D000080000000000000000E007FCD0060808FB
:1054E000061008061008061008061838060FF00601
:1054F00007C0000000000000000000003F8001FF26
:10550000E00384300208180410080410080410088E
:10551000071810030FF00007C00000000000000093
:10552000000003C0000700000600000600F80607A0
:10553000F806180006E00007000006000000000062
:1055400000000001E1E003F7F0063410041808043D
:105550001808040C08040C0806161803F3F001C11F
:10556000E000000000000000F80003FC30030638F3
:105570000402080402080402080404100308F001ED
:10558000FFC0007F000000000000000000000000DD
:105590000000000000000000703800703800703813
:1055A00000000000000000000000000000000000FB
:1055B000000000000000000000000000301A003071
:1055C0001C000000000000000000000000000000BF
:1055D000000000000000000800001400002200008D
:1055E00041000080800100400200200400100800FB
:1055F0000800000000000000210000210000210040
:1056000000210000210000210000210000210000F5
:105610002100002100000000000000000000080040
:1056200008040010020020010040008080004100BA
:105630000022000014000008000000000000000329
:10564000C00004C000040000080038080F38080833
:10565000380810000C300007E00003C00000000014
:10566000000000003F8000FFE0038070020F100682
:10567000708804C088048308047F8802C0900301F6
:105680002000FE400000080000180001F8003E085D
:1056900001C20007020007E20000FE00001FC80070
:1056A00001F800003800000804000807FFF807FFB1
:1056B000F80408080408080408080408080618087C
:1056C00003F41801E7F00001E00000000000000012
:1056D0003F8001FFE003807002001804000804000E
:1056E000080400080400100600200780C000000025
:1056F00004000807FFF807FFF80400080400080486
:10570000000804001802001003807001FFE0007F11
:105710008000000004000807FFF807FFF8040808ED
:10572000040808040808040808043E0804000806E1
:10573000001801006000000004000807FFF807FFE0
:10574000F8040808040800040800040800043E00E7
:1057500006000006000001800000000000000000BC
:105760003F8001FFE0038070060018040008040277
:10577000080402080203F00783F0000200000200A0
:1057800004000807FFF807FFF804080800080000F5
:10579000080000080000080004080807FFF807FFD9
:1057A000F8040008000000000000040008040008DD
:1057B00004000807FFF807FFF804000804000804C5
:1057C00000080000000000000000000000060000CB
:1057D0000700000104000104000104000307FFFEAC
:1057E00007FFFC0400000400000400000400080798
:1057F000FFF807FFF8040C08001800003E0004C77B
:10580000800503C80600F8040038040018000008EA
:1058100004000807FFF807FFF8040008000008006C
:105820000008000008000008000008000018000040
:105830006000000004000807FFF807800807FC006C
:10584000007FC00003F80007C00078000780080749
:10585000FFF807FFF804000804000807FFF8070036
:105860000803C00000E000003800001E0000070030
:105870000001C00400F007FFF80400000000000071
:105880007F8001FFE0038070060018040008040018
:105890000806001803003001FFE0007F80000000D0
:1058A00004000807FFF807FFF804040804040004D4
:1058B0000400040400040400060C0003F80001F0D6
:1058C00000000000000000007F8001FFE003807006
:1058D0000600880400880400C806003C03003E015E
:1058E000FFE6007F8400000004000807FFF807FFC0
:1058F000F8040808040800040C00040F00040BC09E
:105900000610F003F03801E0080000080000000174
:10591000E0F803F030063010041808041808040CEE
:1059200008040C080206180207F00781E0000000D6
:1059300001800006000004000004000004000807C5
:10594000FFF807FFF8040008040000040000060048
:105950000001800004000007FFE007FFF0040018CA
:10596000000008000008000008000008000008040B
:10597000001007FFE004000004000006000007E03C
:105980000007FE00041FE00001F80000380001E0FD
:10599000043E0007C00006000004000004000007E9
:1059A000E00007FFC0041FF80007C007F80007FF6A
:1059B00080043FF80007C004F8000700000400005E
:1059C00000000004000806001807C07805F1C800B0
:1059D0003E00001F800463E80780F80600180400FA
:1059E0000800000004000006000007800007E0082F
:1059F000047C08001FF80007F800180804E00807F6
:105A0000000006000004000000000001000806007D
:105A1000380400F80403E8040F08047C0805F008C3
:105A200007C0080700180400600000000000000024
:105A300000000000000000000000003FFFFE20000A
:105A400002200002200002200002200002000000CC
:105A500000000000000008000007000000C0000077
:105A600038000006000001C000003000000E0000F9
:105A700001000000000000000000200002200002E1
:105A80002000022000022000023FFFFE0000000074
:105A90000000000000000000000000000000000006
:105AA000000800001000003000002000003000005E
:105AB00010000008000000000000000000000100CD
:105AC00000010000010000010000010000010000D1
:105AD00001000001000001000001000001000001C0
